:020000040800F2
:10000000B004002005010008D50A0008710A0008A4
:10001000D10A0008E5010008F31300080000000001
:10002000000000000000000000000000E90C0008D3
:10003000B503000800000000D10B0008290F0008DC
:100040001F0100081F0100081F0100081F01000810
:100050001F0100081F0100081F0100081F01000800
:100060001F0100081F0100081F0100081F010008F0
:100070001F0100081F0100081F0100081F010008E0
:100080001F0100081F0100081F0100081F010008D0
:100090001F0100081F0100081F0100081F010008C0
:1000A0001F0100081F0100081F0100081F010008B0
:1000B0001F010008B10F00081F0100081F01000800
:1000C0001F0100081F0100081F0100081F01000890
:1000D0001F0100081F010008DD1000081F010008B3
:1000E0001F0100081F0100081F010008DFF810D0E1
:1000F00000F066F800480047C1160008AFF3008022
:10010000B00400200648804706480047FEE7FEE7A7
:10011000FEE7FEE7FEE7FEE7FEE7FEE7FEE7FEE7B7
:10012000510F0008ED00000840EA01039B0703D0CF
:1001300009E008C9121F08C0042AFAD203E011F826
:10014000013B00F8013B521EF9D27047D2B201E0E8
:1001500000F8012B491EFBD270470022F6E710B5CC
:1001600013460A4604461946FFF7F0FF204610BD25
:1001700030B505462A460B4612F8010B13F8014B21
:1001800008B1A042F8D01CB1002802D06D1CF1E7E4
:10019000284630BD30B50B46014600202022012400
:1001A00009E021FA02F59D4205D303FA02F5491B45
:1001B00004FA02F52844151EA2F10102F1DC30BD5B
:1001C000064C074D06E0E06840F0010394E80700A4
:1001D00098471034AC42F6D3FFF78CFFD0170008D5
:1001E000F017000800BFFEE708B50121082000F065
:1001F00001FD10208DF803000001ADF80000032080
:100200008DF802006946044800F09AFB4FF48071B3
:10021000014800F029FC08BD000C014010B54FF466
:100220008071064800F022FC192000F035FE4FF4E2
:100230008071024800F018FC10BD0000000C014065
:1002400008B504208DF803000220ADF8000003205B
:100250008DF802006946024800F072FB08BD0000FC
:10026000000C014008B50121082000F0C3FC10205B
:100270008DF803000220ADF8000003208DF8020085
:100280006946024800F05CFB08BD0000000C01401C
:1002900070B50024002500BF1BE000BF02210F48FD
:1002A00000F0D9FB0028F9D0282000F019FE6006E4
:1002B000040E0221094800F0CEFB08B144F001040D
:1002C00000BF0221054800F0C6FB0028F9D1681CD8
:1002D000C5B2082DE1DB204670BD0000000C0140D6
:1002E00010B5002400F054F80221274800F0BEFBAE
:1002F000022000F0F5FD0221234800F0B5FB12209A
:1003000000F0CAFD0221204800F0B0FB1E2000F0E2
:10031000E7FDFFF795FF02211B4800F09CFB70BB37
:1003200000BF0221184800F096FB0028F9D000BF5A
:100330000221154800F08FFB0028F9D1002408E0C5
:10034000FFF7A6FF114908550A2000F0C9FD601CFF
:10035000C4B2052CF4DB322000F0C2FD0B4800785B
:100360000A49497808440949897808440749C978FD
:10037000084406490979884202D1012010BD01E0F4
:100380000020FBE70020F9E7000C01403B000020C3
:1003900008B510208DF803000220ADF800000320FE
:1003A0008DF802006946024800F0CAFA08BD000054
:1003B000000C01407047000030B58BB0002515E0FF
:1003C0004FF4FA73002238A138A000F035FA4FF448
:1003D000FA73002234A136A000F02EFA20B10025D5
:1003E00035A001F045F803E0681CC5B2052DE7DB38
:1003F00000BF052D05D135A001F03AF800200BB063
:1004000030BD37A001F034F84FF4FA73002226A172
:1004100027A000F011FA044624B935A001F028F80D
:100420000020ECE7002C3CD000F0DCF9032000F0C9
:1004300097F834A001F01CF841F2883300221AA189
:1004400034A000F0F9F920B935A001F011F800202E
:10045000D5E700F0C7F900BF00F09AF90028FBD0FB
:10046000142234A106A8FFF75FFE122206A936481F
:1004700000F0C1FF00F0D6F800BF00F037F9002807
:10048000FBD0142231A101A8FFF74EFE142201A9CE
:100490002D4800F0B0FF00F027FA00F0F5F8012435
:1004A00000E000242046AAE74F4B00002B2B2B0036
:1004B00041540D0A00000000CDCBB3F6CDB8B4AB6B
:1004C000C4A3CABDB3C9B9A60D0A0000CDCBB3F60B
:1004D000CDB8B4ABC4A3CABDCAA7B0DC0D0A000036
:1004E000B7A2CBCDB2E2CAD4C3FCC1EE0D0A000064
:1004F000B7A2CBCDB2E2CAD4C3FCC1EECAA7B0DC6E
:100500000D0A0000B7A2CBCDB8B4CEBBC3FCC1EE80
:100510000D0A000041542B5253540D0A00000000F4
:10052000B7A2CBCDB8B4CEBBC3FCC1EECAA7B0DC7A
:100530000D0A0000FD000F0101CDF8C2E7C1ACBDFE
:10054000D3B3C9B9A684000000380140FD001101F1
:1005500001C1ACBDD3B7FECEF1C6F7B3C9B9A6CDC4
:1005600030B59FB00546012D04D0022D10D0032DCB
:100570002AD11BE02A461AA101A800F089FF4FF4F6
:100580007A7300221AA101A800F056F904461BE074
:100590002A4613A101A800F07BFF4FF47A730022D2
:1005A00013A101A800F048F904460DE02A460CA169
:1005B00001A800F06DFF4FF47A7300220CA101A88E
:1005C00000F03AF9044600BF00BF1CB109A000F0DA
:1005D0004FFF02E00DA000F04BFF1FB030BD000048
:1005E00041542B43574D4F44453D25640D0A0000AF
:1005F0004F4B000045535038323636C4A3CABDC9EC
:10060000E8D6C3B3C9B9A60D0A0000004553503857
:10061000323636C4A3CABDC9E8D6C3CAA7B0DC0DFA
:100620000A00000010B54FF4FA73002207A108A0D9
:1006300000F002F920B90AA000F01AFF002010BD56
:100640000CA000F015FF0120F9E700004F4B00005F
:1006500041542B4349504D55583D300D0A00000080
:10066000C9E8D6C3B5A5C1ACBDD3CAA7B0DC0D0AD5
:1006700000000000C9E8D6C3B5A5C1ACBDD3B3C95D
:10068000B9A60D0A0000000010B54FF4FA7300225D
:1006900007A108A000F0D0F820B90AA000F0E8FEF9
:1006A000002010BD0CA000F0E3FE0120F9E70000DF
:1006B0003E00000041542B43495053454E440D0A1F
:1006C00000000000BFAACABCB7A2CBCDCAFDBEDDE8
:1006D000CAA7B0DC0D0A0000BFAACABCB7A2CBCD26
:1006E000CAFDBEDDB3C9B9A60D0A000000B59FB0B2
:1006F00041F2893306A20AA101A800F0C9FE4FF415
:100700007A730EA211A101A800F096F81FB000BDE7
:100710003130312E3133332E3135302E3338000025
:1007200041542B43495053544152543D2254435059
:10073000222C222573222C25640D0A00414C52459F
:10074000415920434F4E4E45435400004F4B00004B
:1007500070B504460D462A462146024800F04BFE7D
:10076000012070BD0044004010B5044621460448F5
:1007700000F068FE03A000F07BFE012010BD000029
:1007800000440040B7A2CBCDB3C9B9A60000000019
:1007900000B59FB007A30AA20BA101A800F078FE44
:1007A00041F2883300220EA101A800F045F81FB0E5
:1007B00000BD0000383838383636363600000000C4
:1007C000647265616D00000041542B43574A4150EB
:1007D0003D222573222C222573220D0A00000000E1
:1007E0004F4B000010B54FF44873002207A108A03A
:1007F00000F022F8044624B107A000F039FE0120E1
:1008000010BD09A000F034FE0020F9E74F4B0000B6
:10081000415445300D0A0000B9D8B1D5BBD8CFD46A
:10082000B3C9B9A60D0A0000B9D8B1D5BBD8CFD489
:10083000CAA7B0DC0D0A00002DE9F04106460C46BF
:1008400015461F46002240F22551254800F037FD8D
:100850003146234800F0F6FD012240F225512048A0
:1008600000F02DFD1CB915B90120BDE8F081384616
:1008700000F012FB00201B49B1F86410194A5054D3
:100880001146A1F86600A1F86400B4B1ADB12146EB
:100890001046FFF76DFC08B1012000E0002040B9D0
:1008A00029461048FFF764FC08B1012000E0002051
:1008B00008B10120D9E70020D7E744B12146094813
:1008C000FFF756FC08B10120CFE70020CDE729460D
:1008D0000448FFF74DFC08B10120C6E70020C4E73B
:1008E000004400404400002010B54FF4FA73002289
:1008F00006A107A0FFF7A0FF18B109A000F0B8FDFE
:1009000002E00BA000F0B4FD10BD00004F4B000052
:1009100041542B4349504D4F44453D310D0A000091
:10092000C9E8D6C3CDB8B4ABB3C9B9A60D0A0000A7
:10093000C9E8D6C3CDB8B4ABCAA7B0DC0D0A000075
:100940002DE9F04102460025002600200023002466
:10095000002791F803C00CF00F0591F803C00CF0CC
:10096000100CBCF1000F03D091F802C04CEA050551
:1009700091F800C0BCF1000F31D0146800202BE0CA
:100980004FF0010C0CFA00F3B1F800C00CEA0306BA
:100990009E4220D183004FF00F0C0CFA03F7BC43AA
:1009A00005FA03FC4CEA040491F803C0BCF1280FDB
:1009B00006D14FF0010C0CFA00FCC2F814C00AE09A
:1009C00091F803C0BCF1480F05D14FF0010C0CFAAF
:1009D00000FCC2F810C0401C0828D1D31460B1F844
:1009E00000C0BCF1FF0F34DD546800202EE000F1A0
:1009F000080C4FF0010808FA0CF3B1F800C00CEA3B
:100A000003069E4221D183004FF00F0C0CFA03F72E
:100A1000BC4305FA03FC4CEA040491F803C0BCF1A2
:100A2000280F05D100F1080C08FA0CF8C2F8148060
:100A300091F803C0BCF1480F07D100F1080C4FF04A
:100A4000010808FA0CF8C2F81080401C0828CED320
:100A50005460BDE8F0810246002093680B400BB162
:100A6000012000E00020704741617047016170473C
:100A700000BFFEE710B54FF400510248FFF7F6FF44
:100A800010BD00000010014008B50121102000F049
:100A9000B1F810208DF803004002ADF800000320EB
:100AA0008DF8020069460448FFF74AFF4FF40051F1
:100AB0000148FFF7DBFF08BD0010014010B54FF4FF
:100AC00000510248FFF7D0FF10BD000000100140A8
:100AD00000BFFEE7704708B54FF4C06000F06EF845
:100AE00027208DF8000000208DF8010002208DF8ED
:100AF000020001208DF80300684600F027F84FF44B
:100B0000C06000F05BF826208DF8000000208DF812
:100B100001008DF8020001208DF80300684600F006
:100B200015F84FF4C06000F049F825208DF800005A
:100B300000208DF8010003208DF8020001208DF8BF
:100B40000300684600F002F808BD000070B50021FF
:100B500000230F22C47804B3154C246804F4E06425
:100B6000C4F5E064210AC1F10403CA40447804FAE0
:100B700003F184781440214309010E4C0678A155F5
:100B8000047804F01F050124AC4005786D11AD0018
:100B900005F1E025C5F8004109E0047804F01F05DF
:100BA0000124AC40044D0678761145F8264070BD0E
:100BB0000CED00E000E400E080E100E002490143C8
:100BC000024A1160704700000000FA050CED00E0D9
:100BD0007047000029B1064AD2690243044BDA612A
:100BE00004E0034AD2698243014BDA617047000096
:100BF0000010024029B1064A92690243044B9A61EF
:100C000004E0034A92698243014B9A6170470000F5
:100C10000010024030B500210022002400232D4D99
:100C20006D6805F00C0121B1042905D0082923D1F4
:100C300005E0294D056022E0274D05601FE0254DA8
:100C40006D6805F47012234D6D6805F4803402253B
:100C500005EB92421CB9214D554305600BE01D4D3B
:100C60006D6805F400351DB11C4D5543056002E06B
:100C7000194D5543056002E0174D056000BF00BFE8
:100C8000144D6D6805F0F0010909154D6B5C0568A0
:100C9000DD4045600F4D6D6805F4E061090A104DB7
:100CA0006B5C4568DD4085600A4D6D6805F46051F8
:100CB000C90A0B4D6B5C4568DD40C560054D6D682C
:100CC00005F44041890B074D6B5CC568B5FBF3F536
:100CD000056130BD0010024000127A0000093D009D
:100CE0001800002028000020704700000EB50121E8
:100CF0000220FFF76FFF41F61F40ADF80000002013
:100D0000ADF8020042F20F70ADF8040069460848E1
:100D100000F08CF90121064800F05CF9012211462F
:100D2000034800F07AF90121014800F059F90EBD9D
:100D30000004004008B54FF44070FFF73FFF1D204E
:100D40008DF8000001208DF801008DF802008DF86B
:100D500003006846FFF7FAFE08BD10B500F002F880
:100D600010BD00000CB500200190009033480068D1
:100D700040F480303149086000BF3048006800F41A
:100D8000003000900198401C0190009818B901981B
:100D9000B0F5A06FF1D12948006800F4003010B11F
:100DA0000120009001E0002000900098012843D12C
:100DB0002348006840F01000214908600846006898
:100DC00020F0030008600846006840F00200086058
:100DD0001A48406819494860084640684860084613
:100DE000406840F4806048600846406820F47C1009
:100DF00048600846406840F4E810486008460068CB
:100E000040F08070086000BF0C48006800F000707F
:100E10000028F9D00948406820F0030007494860DD
:100E20000846406840F00200486000BF0348406840
:100E300000F00C000828F9D10CBD000000100240A1
:100E40000020024030B50146B1F1807F01D301207E
:100E500030BD21F07F40401E4FF0E022506150171E
:100E60000F22002807DA13071D0E094B00F00F04AC
:100E7000241F1D5503E013071C0E064B1C5400BF16
:100E800000204FF0E0229061072010610020DFE792
:100E900018ED00E000E400E070B504460F4800687B
:100EA0004FF47A71B0FBF1F63046FFF7CBFF002527
:100EB00008E000BF4FF0E020006900F48030002817
:100EC000F8D06D1CA542F4D34FF0E020006920F06B
:100ED00001004FF0E021086170BD00000400002017
:100EE00070B504460E4800680E49B0FBF1F6304676
:100EF000FFF7A8FF002508E000BF4FF0E0200069E1
:100F000000F480300028F8D06D1CA542F4D34FF0D7
:100F1000E020006920F001004FF0E021086170BD81
:100F20000400002040420F007047000010B5064842
:100F300000680649B0FBF1F42046FFF783FF08B1D3
:100F400000BFFEE710BD000004000020A0860100E5
:100F500010B51348006840F00100114908600846C8
:100F60004068104908400E494860084600680E492C
:100F700008400B4908600846006820F4802008609B
:100F80000846406820F4FE0048604FF41F00886067
:100F9000FFF7E3FE4FF000600449086010BD000059
:100FA000001002400000FFF8FFFFF6FE08ED00E031
:100FB00010B50121054800F01FF830B101200449A7
:100FC00008700121014800F008F810BD000400403D
:100FD00000000020CA4302827047CA430282704761
:100FE00021B1028842F00102028004E002884FF63B
:100FF000FE731A400280704730B50246002000237D
:101000000024158A05EA0103958905EA010413B154
:101010000CB1012000E0002030BD1AB183890B43E0
:10102000838102E083898B43838170470022028899
:101030001D4B98420ED01D4B98420BD0B0F1804F03
:1010400008D01B4B984205D01A4B984202D01A4B3D
:10105000984204D14FF68F731A404B881A43174BAE
:10106000984207D0164B984204D04FF6FF431A40DF
:10107000CB881A4302808B8883850B8803850A4BB3
:1010800098420BD0094B984208D00E4B984205D09D
:101090000D4B984202D00D4B984201D10B7A03863A
:1010A0000123838270470000002C0140003401407E
:1010B0000004004000080040000C00400010004008
:1010C000001400400040014000440140004801403D
:1010D00010B5FFF72FFEFFF709FE10BD10B5002475
:1010E00040F22551134800F0C0F898B1114800F0C3
:1010F00077F9C4B21048B0F8640063280ADA0E48E1
:10110000B0F86410B0F86400401C0B4AA2F8640008
:101110001046445440F22441064800F0A6F8012845
:1011200006D10549A1F86600024800F059F9C4B299
:1011300010BD0000004400404400002021B182891D
:1011400042F40052828104E082894DF6FF731A4016
:101150008281704700B585B001210420FFF74AFD68
:1011600001210420FFF746FD01218803FFF742FD1E
:1011700001214804FFF72EFD4FF40070ADF8100078
:1011800018208DF8130003208DF8120004A92D48B3
:10119000FFF7D6FB0420ADF8100004A92948FFF79B
:1011A000CFFB4FF48060ADF8100004208DF81300E1
:1011B00004A92448FFF7C4FB0820ADF8100004A9D7
:1011C0002048FFF7BDFB4FF4165000900020ADF80B
:1011D0000400ADF80600ADF80800ADF80C000C20D6
:1011E000ADF80A006946184800F08EF84FF4E13077
:1011F00000900020ADF80400ADF80600ADF808003E
:10120000ADF80C000C20ADF80A0069460F4800F05C
:101210007BF8FFF760FC012240F225510B4800F0FB
:101220004EF8012240F22441084800F048F801211C
:101230000548FFF783FF01210448FFF77FFF05B052
:1012400000BD00000008014000380140004400409B
:1012500002460020B1F5007F00D100BF13880B408B
:101260000BB1012000E00020704770B50246002459
:1012700000230025002040F66A16B14200D100BFCD
:10128000C1F3421501F01F03012606FA03F3012DF5
:1012900002D19689334006E0022D02D1168A3340EE
:1012A00001E0968A33400C12012606FA04F41688EF
:1012B000344013B10CB1012000E0002070BDF0B546
:1012C0000346002400260025002040F66A17B94294
:1012D00000D100BF1846C1F3421401F01F060127D8
:1012E00007FA06F5012C01D10C3004E0022C01D1E3
:1012F000103000E014301AB107682F43076002E095
:101300000768AF430760F0BD2DE9F04786B005469A
:101310000E460024A24600BFA1460027B08900B1B6
:1013200000BF2F462C8A4CF6FF700440F08804431F
:101330002C82AC894EF6F3100440B0883189084302
:10134000718908430443AC81AC8A4FF6FF400440E6
:10135000B0890443AC8201A8FFF75CFC1F488742B8
:1013600002D1DDF810A001E0DDF80CA0A88900F49E
:10137000004040B10AEBCA0000EB0A103168490096
:10138000B0FBF1F807E00AEBCA0000EB0A10316885
:101390008900B0FBF1F86420B8FBF0F004012009EB
:1013A000642101FB1089A88900F4004040B132207B
:1013B00000EBC900B0FBF1F000F00700044308E0C7
:1013C000322000EB09106421B0FBF1F000F00F00B7
:1013D00004432C8106B0BDE8F087000000380140CE
:1013E00001468888C0F308007047C1F30802828074
:1013F000704700BFFEE72DE9F04107460D4616464F
:10140000002405E0295D384600F00DF8601CC4B2E8
:10141000B442F7DB00BF40213846FFF719FF002830
:10142000F9D0BDE8F08170B504460D462946204646
:10143000FFF7DBFF00BF80212046FFF709FF0028F0
:10144000F9D070BD70B506460C46002500BF615D41
:101450003046FFF7E8FF681CC5B2605D0028F6D192
:1014600000BF40213046FFF7F3FE0028F9D070BDE1
:101470000FB4054B10B503A9044A029800F02CF8EC
:1014800010BC5DF814FB00009D1600084000002011
:101490000FB4084B10B504A902AA039800F01CF879
:1014A000044602A9002000F0F3F8204610BC5DF8C5
:1014B00014FB00009116000802E008C8121F08C1C2
:1014C000002AFAD170477047002001E001C1121FC5
:1014D000002AFBD1704700002DE9FF4F8BB09A46E0
:1014E0000F460546002606E025280BD052460D99EA
:1014F00090476D1C761C28780028F5D10FB0304637
:10150000BDE8F08F0024A0460122604900E00443BA
:1015100015F8013F203B02FA03F00842F7D1287882
:101520002E2817D115F8010F44F004042A280ED0F4
:101530006FF02F022878A0F1300109290AD808EBB2
:10154000880102EB410100EB01086D1CF2E757F83E
:10155000048B6D1C287869283ED006DC0028CDD08D
:1015600063280BD0642804D136E0732810D0752886
:101570004BD052460D999047761C85E017F8040B26
:101580008DF8000000208DF80100E946012003E0FD
:1015900057F8049B4FF0FF3061074FF0000401D46F
:1015A0000AE0641C44450DDA8442FADB19F80410A1
:1015B0000029F6D106E0641C8442FCDB19F8041013
:1015C0000029F8D1264404E019F8010B52460D9980
:1015D0009047641EF8D257E001CF4FF00A0B002865
:1015E00002DA40422D2102E0210504D52B218DF89D
:1015F0002410012103E0E10705D02021F7E70DF1D8
:10160000200908910CE00021F9E701CF4FF00A0B07
:10161000F9E75946FEF7BEFD01F1300209F8012D48
:101620000028F6D1ADEB090000F1200B600701D4D2
:101630004FF00108D84502DDA8EB0B0000E00020C8
:101640008046002406E009A85246005D0D999047A7
:10165000641C761C08988442F5DB04E03020524676
:101660000D999047761CB8F10001A8F10108F5DC4E
:1016700005E019F8010B52460D999047761CBBF115
:101680000001ABF1010BF4DC6D1C34E7092801000B
:101690000A68531C0B6010707047000070B5044658
:1016A0000D46E1B20548FFF7A0FE00BF80210348C8
:1016B000FFF7CEFD0028F9D0204670BD003801406C
:1016C00010B5FFF733FCFFF7DFF9FEF7CBFDFEF7B0
:1016D0008BFDFFF73FFDFEF76FFE08B9002010BD40
:1016E000FEF79CFDFFF7F4FC2DA0FFF73DF855E059
:1016F0002E48B0F86600012827D100202B49A1F818
:10170000660008460078FC2817D108468078C01C7F
:10171000085CCF2811D10846C078012805D124A043
:10172000FFF7A6FEFFF7CAF907E02048C07820B906
:1017300021A0FFF79DFEFFF79DF900201B49A1F8AE
:10174000640064211948FEF708FD1D48007828B39D
:1017500000201B490870FEF7C3FD01281ED141037C
:101760001848FFF778F904461CB100201649C871E3
:1017700002E001201449C871144880781249C870E9
:101780001248C07808711148007848710F484078B5
:1017900088710D210C48FEF7DBFF00BFA8E70000B1
:1017A0006465766964650D0A00000000440000204D
:1017B000BFAAB5C60D0A0000B9D8B5C60D0A00000B
:1017C00000000020001001402C0000203B00002001
:1017D000F01700080000002044000000B8140008C2
:1017E00034180008440000206C040000C8140008ED
:1017F0000000000000A24A040000000000000000F9
:1018000001020304060708090000000001020304A6
:10181000010203040607080902040608FD01090085
:101820000000000000000000DF00000000000000D9
:0418300000000000B4
:04000005080000ED02
:00000001FF
